{
  "contractName": "ChessMate",
  "abi": [
    {
      "inputs": [
        {
          "internalType": "address",
          "name": "add",
          "type": "address"
        }
      ],
      "name": "get_balance",
      "outputs": [
        {
          "internalType": "uint256",
          "name": "",
          "type": "uint256"
        }
      ],
      "stateMutability": "view",
      "type": "function"
    },
    {
      "inputs": [
        {
          "internalType": "address payable",
          "name": "add1",
          "type": "address"
        },
        {
          "internalType": "uint256",
          "name": "val",
          "type": "uint256"
        }
      ],
      "name": "transaction",
      "outputs": [],
      "stateMutability": "payable",
      "type": "function"
    }
  ],
  "bytecode": "0x608060405234801561001057600080fd5b50610297806100206000396000f3fe6080604052600436106100295760003560e01c80631e279a371461002e578063a088ceb61461006b575b600080fd5b34801561003a57600080fd5b5061005560048036038101906100509190610156565b610087565b604051610062919061019c565b60405180910390f35b61008560048036038101906100809190610221565b6100a8565b005b60008173ffffffffffffffffffffffffffffffffffffffff16319050919050565b8173ffffffffffffffffffffffffffffffffffffffff166108fc829081150290604051600060405180830381858888f193505050501580156100ee573d6000803e3d6000fd5b505050565b600080fd5b600073ffffffffffffffffffffffffffffffffffffffff82169050919050565b6000610123826100f8565b9050919050565b61013381610118565b811461013e57600080fd5b50565b6000813590506101508161012a565b92915050565b60006020828403121561016c5761016b6100f3565b5b600061017a84828501610141565b91505092915050565b6000819050919050565b61019681610183565b82525050565b60006020820190506101b1600083018461018d565b92915050565b60006101c2826100f8565b9050919050565b6101d2816101b7565b81146101dd57600080fd5b50565b6000813590506101ef816101c9565b92915050565b6101fe81610183565b811461020957600080fd5b50565b60008135905061021b816101f5565b92915050565b60008060408385031215610238576102376100f3565b5b6000610246858286016101e0565b92505060206102578582860161020c565b915050925092905056fea2646970667358221220bde2fe5e93e1ad47d2dd56ece37b19e2c535f53fc380e2d83a956a355f4fb13a64736f6c634300080a0033",
  "immutableReferences": {},
  "source": "pragma solidity >=0.4.22 <0.9.0;\r\n\r\ncontract ChessMate{\r\n\r\n    function get_balance(address add) public view returns (uint256) {\r\n            return add.balance;\r\n    }\r\n\r\n    function transaction(address payable add1, uint256 val) public payable {\r\n            add1.transfer(val);\r\n    }\r\n\r\n}",
  "sourcePath": "C:\\Users\\Hp\\Desktop\\dev\\ChessMate\\contracts\\Chess.sol",
  "compiler": {
    "name": "solc",
    "version": "0.8.10+commit.fc410830.Emscripten.clang"
  },
  "schemaVersion": "3.4.3",
  "updatedAt": "2021-12-15T11:07:36.360Z",
  "devdoc": {
    "kind": "dev",
    "methods": {},
    "version": 1
  },
  "userdoc": {
    "kind": "user",
    "methods": {},
    "version": 1
  }
}